{
	"SmartContract/parentTransfer.sol": {
		"willDecision": {
			"abi": [
				{
					"inputs": [],
					"name": "transferAmount",
					"outputs": [
						{
							"internalType": "uint256",
							"name": "",
							"type": "uint256"
						}
					],
					"stateMutability": "nonpayable",
					"type": "function"
				},
				{
					"inputs": [],
					"name": "validateIsAlive",
					"outputs": [
						{
							"internalType": "bool",
							"name": "",
							"type": "bool"
						}
					],
					"stateMutability": "view",
					"type": "function"
				},
				{
					"inputs": [],
					"name": "walletBalance",
					"outputs": [
						{
							"internalType": "uint256",
							"name": "",
							"type": "uint256"
						}
					],
					"stateMutability": "view",
					"type": "function"
				}
			],
			"devdoc": {
				"kind": "dev",
				"methods": {},
				"version": 1
			},
			"evm": {
				"assembly": "    /* \"SmartContract/parentTransfer.sol\":35:469  contract willDecision{... */\n  mstore(0x40, 0x80)\n    /* \"SmartContract/parentTransfer.sol\":79:84  false */\n  0x00\n    /* \"SmartContract/parentTransfer.sol\":65:84  bool isAlive= false */\n  dup1\n  exp(0x0100, 0x00)\n  dup2\n  sload\n  dup2\n  0xff\n  mul\n  not\n  and\n  swap1\n  dup4\n  iszero\n  iszero\n  mul\n  or\n  swap1\n  sstore\n  pop\n    /* \"SmartContract/parentTransfer.sol\":252:254  10 */\n  0x0a\n    /* \"SmartContract/parentTransfer.sol\":226:254  uint public walletBalance=10 */\n  0x01\n  sstore\n    /* \"SmartContract/parentTransfer.sol\":35:469  contract willDecision{... */\n  callvalue\n  dup1\n  iszero\n  tag_1\n  jumpi\n  0x00\n  dup1\n  revert\ntag_1:\n  pop\n  dataSize(sub_0)\n  dup1\n  dataOffset(sub_0)\n  0x00\n  codecopy\n  0x00\n  return\nstop\n\nsub_0: assembly {\n        /* \"SmartContract/parentTransfer.sol\":35:469  contract willDecision{... */\n      mstore(0x40, 0x80)\n      callvalue\n      dup1\n      iszero\n      tag_1\n      jumpi\n      0x00\n      dup1\n      revert\n    tag_1:\n      pop\n      jumpi(tag_2, lt(calldatasize, 0x04))\n      shr(0xe0, calldataload(0x00))\n      dup1\n      0x504d27fd\n      eq\n      tag_3\n      jumpi\n      dup1\n      0xcd0a314b\n      eq\n      tag_4\n      jumpi\n      dup1\n      0xe3ec8422\n      eq\n      tag_5\n      jumpi\n    tag_2:\n      0x00\n      dup1\n      revert\n        /* \"SmartContract/parentTransfer.sol\":261:466  function transferAmount() public returns(uint){... */\n    tag_3:\n      tag_6\n      tag_7\n      jump\t// in\n    tag_6:\n      mload(0x40)\n      tag_8\n      swap2\n      swap1\n      tag_9\n      jump\t// in\n    tag_8:\n      mload(0x40)\n      dup1\n      swap2\n      sub\n      swap1\n      return\n        /* \"SmartContract/parentTransfer.sol\":226:254  uint public walletBalance=10 */\n    tag_4:\n      tag_10\n      tag_11\n      jump\t// in\n    tag_10:\n      mload(0x40)\n      tag_12\n      swap2\n      swap1\n      tag_9\n      jump\t// in\n    tag_12:\n      mload(0x40)\n      dup1\n      swap2\n      sub\n      swap1\n      return\n        /* \"SmartContract/parentTransfer.sol\":91:220  function validateIsAlive() public view returns(bool){... */\n    tag_5:\n      tag_13\n      tag_14\n      jump\t// in\n    tag_13:\n      mload(0x40)\n      tag_15\n      swap2\n      swap1\n      tag_16\n      jump\t// in\n    tag_15:\n      mload(0x40)\n      dup1\n      swap2\n      sub\n      swap1\n      return\n        /* \"SmartContract/parentTransfer.sol\":261:466  function transferAmount() public returns(uint){... */\n    tag_7:\n        /* \"SmartContract/parentTransfer.sol\":302:306  uint */\n      0x00\n        /* \"SmartContract/parentTransfer.sol\":322:329  isAlive */\n      dup1\n      0x00\n      swap1\n      sload\n      swap1\n      0x0100\n      exp\n      swap1\n      div\n      0xff\n      and\n        /* \"SmartContract/parentTransfer.sol\":318:458  if(!isAlive){... */\n      tag_18\n      jumpi\n        /* \"SmartContract/parentTransfer.sol\":374:376  10 */\n      0x0a\n        /* \"SmartContract/parentTransfer.sol\":360:373  walletBalance */\n      sload(0x01)\n        /* \"SmartContract/parentTransfer.sol\":360:376  walletBalance+10 */\n      tag_19\n      swap2\n      swap1\n      tag_20\n      jump\t// in\n    tag_19:\n        /* \"SmartContract/parentTransfer.sol\":345:358  walletBalance */\n      0x01\n        /* \"SmartContract/parentTransfer.sol\":345:376  walletBalance= walletBalance+10 */\n      dup2\n      swap1\n      sstore\n      pop\n        /* \"SmartContract/parentTransfer.sol\":398:411  walletBalance */\n      sload(0x01)\n        /* \"SmartContract/parentTransfer.sol\":391:411  return walletBalance */\n      swap1\n      pop\n      jump(tag_17)\n        /* \"SmartContract/parentTransfer.sol\":318:458  if(!isAlive){... */\n    tag_18:\n        /* \"SmartContract/parentTransfer.sol\":445:458  walletBalance */\n      sload(0x01)\n        /* \"SmartContract/parentTransfer.sol\":438:458  return walletBalance */\n      swap1\n      pop\n        /* \"SmartContract/parentTransfer.sol\":261:466  function transferAmount() public returns(uint){... */\n    tag_17:\n      swap1\n      jump\t// out\n        /* \"SmartContract/parentTransfer.sol\":226:254  uint public walletBalance=10 */\n    tag_11:\n      sload(0x01)\n      dup2\n      jump\t// out\n        /* \"SmartContract/parentTransfer.sol\":91:220  function validateIsAlive() public view returns(bool){... */\n    tag_14:\n        /* \"SmartContract/parentTransfer.sol\":138:142  bool */\n      0x00\n        /* \"SmartContract/parentTransfer.sol\":167:171  true */\n      0x01\n        /* \"SmartContract/parentTransfer.sol\":157:171  isAlive== true */\n      iszero\n      iszero\n        /* \"SmartContract/parentTransfer.sol\":157:164  isAlive */\n      0x00\n      dup1\n      sload\n      swap1\n      0x0100\n      exp\n      swap1\n      div\n      0xff\n      and\n        /* \"SmartContract/parentTransfer.sol\":157:171  isAlive== true */\n      iszero\n      iszero\n      sub\n        /* \"SmartContract/parentTransfer.sol\":154:212  if(isAlive== true) return true;... */\n      tag_23\n      jumpi\n        /* \"SmartContract/parentTransfer.sol\":180:184  true */\n      0x01\n        /* \"SmartContract/parentTransfer.sol\":173:184  return true */\n      swap1\n      pop\n      jump(tag_22)\n        /* \"SmartContract/parentTransfer.sol\":154:212  if(isAlive== true) return true;... */\n    tag_23:\n        /* \"SmartContract/parentTransfer.sol\":207:212  false */\n      0x00\n        /* \"SmartContract/parentTransfer.sol\":200:212  return false */\n      swap1\n      pop\n        /* \"SmartContract/parentTransfer.sol\":91:220  function validateIsAlive() public view returns(bool){... */\n    tag_22:\n      swap1\n      jump\t// out\n        /* \"#utility.yul\":7:84   */\n    tag_25:\n        /* \"#utility.yul\":44:51   */\n      0x00\n        /* \"#utility.yul\":73:78   */\n      dup2\n        /* \"#utility.yul\":62:78   */\n      swap1\n      pop\n        /* \"#utility.yul\":7:84   */\n      swap2\n      swap1\n      pop\n      jump\t// out\n        /* \"#utility.yul\":90:208   */\n    tag_26:\n        /* \"#utility.yul\":177:201   */\n      tag_33\n        /* \"#utility.yul\":195:200   */\n      dup2\n        /* \"#utility.yul\":177:201   */\n      tag_25\n      jump\t// in\n    tag_33:\n        /* \"#utility.yul\":172:175   */\n      dup3\n        /* \"#utility.yul\":165:202   */\n      mstore\n        /* \"#utility.yul\":90:208   */\n      pop\n      pop\n      jump\t// out\n        /* \"#utility.yul\":214:436   */\n    tag_9:\n        /* \"#utility.yul\":307:311   */\n      0x00\n        /* \"#utility.yul\":345:347   */\n      0x20\n        /* \"#utility.yul\":334:343   */\n      dup3\n        /* \"#utility.yul\":330:348   */\n      add\n        /* \"#utility.yul\":322:348   */\n      swap1\n      pop\n        /* \"#utility.yul\":358:429   */\n      tag_35\n        /* \"#utility.yul\":426:427   */\n      0x00\n        /* \"#utility.yul\":415:424   */\n      dup4\n        /* \"#utility.yul\":411:428   */\n      add\n        /* \"#utility.yul\":402:408   */\n      dup5\n        /* \"#utility.yul\":358:429   */\n      tag_26\n      jump\t// in\n    tag_35:\n        /* \"#utility.yul\":214:436   */\n      swap3\n      swap2\n      pop\n      pop\n      jump\t// out\n        /* \"#utility.yul\":442:532   */\n    tag_27:\n        /* \"#utility.yul\":476:483   */\n      0x00\n        /* \"#utility.yul\":519:524   */\n      dup2\n        /* \"#utility.yul\":512:525   */\n      iszero\n        /* \"#utility.yul\":505:526   */\n      iszero\n        /* \"#utility.yul\":494:526   */\n      swap1\n      pop\n        /* \"#utility.yul\":442:532   */\n      swap2\n      swap1\n      pop\n      jump\t// out\n        /* \"#utility.yul\":538:647   */\n    tag_28:\n        /* \"#utility.yul\":619:640   */\n      tag_38\n        /* \"#utility.yul\":634:639   */\n      dup2\n        /* \"#utility.yul\":619:640   */\n      tag_27\n      jump\t// in\n    tag_38:\n        /* \"#utility.yul\":614:617   */\n      dup3\n        /* \"#utility.yul\":607:641   */\n      mstore\n        /* \"#utility.yul\":538:647   */\n      pop\n      pop\n      jump\t// out\n        /* \"#utility.yul\":653:863   */\n    tag_16:\n        /* \"#utility.yul\":740:744   */\n      0x00\n        /* \"#utility.yul\":778:780   */\n      0x20\n        /* \"#utility.yul\":767:776   */\n      dup3\n        /* \"#utility.yul\":763:781   */\n      add\n        /* \"#utility.yul\":755:781   */\n      swap1\n      pop\n        /* \"#utility.yul\":791:856   */\n      tag_40\n        /* \"#utility.yul\":853:854   */\n      0x00\n        /* \"#utility.yul\":842:851   */\n      dup4\n        /* \"#utility.yul\":838:855   */\n      add\n        /* \"#utility.yul\":829:835   */\n      dup5\n        /* \"#utility.yul\":791:856   */\n      tag_28\n      jump\t// in\n    tag_40:\n        /* \"#utility.yul\":653:863   */\n      swap3\n      swap2\n      pop\n      pop\n      jump\t// out\n        /* \"#utility.yul\":869:1049   */\n    tag_29:\n        /* \"#utility.yul\":917:994   */\n      0x4e487b7100000000000000000000000000000000000000000000000000000000\n        /* \"#utility.yul\":914:915   */\n      0x00\n        /* \"#utility.yul\":907:995   */\n      mstore\n        /* \"#utility.yul\":1014:1018   */\n      0x11\n        /* \"#utility.yul\":1011:1012   */\n      0x04\n        /* \"#utility.yul\":1004:1019   */\n      mstore\n        /* \"#utility.yul\":1038:1042   */\n      0x24\n        /* \"#utility.yul\":1035:1036   */\n      0x00\n        /* \"#utility.yul\":1028:1043   */\n      revert\n        /* \"#utility.yul\":1055:1246   */\n    tag_20:\n        /* \"#utility.yul\":1095:1098   */\n      0x00\n        /* \"#utility.yul\":1114:1134   */\n      tag_43\n        /* \"#utility.yul\":1132:1133   */\n      dup3\n        /* \"#utility.yul\":1114:1134   */\n      tag_25\n      jump\t// in\n    tag_43:\n        /* \"#utility.yul\":1109:1134   */\n      swap2\n      pop\n        /* \"#utility.yul\":1148:1168   */\n      tag_44\n        /* \"#utility.yul\":1166:1167   */\n      dup4\n        /* \"#utility.yul\":1148:1168   */\n      tag_25\n      jump\t// in\n    tag_44:\n        /* \"#utility.yul\":1143:1168   */\n      swap3\n      pop\n        /* \"#utility.yul\":1191:1192   */\n      dup3\n        /* \"#utility.yul\":1188:1189   */\n      dup3\n        /* \"#utility.yul\":1184:1193   */\n      add\n        /* \"#utility.yul\":1177:1193   */\n      swap1\n      pop\n        /* \"#utility.yul\":1212:1215   */\n      dup1\n        /* \"#utility.yul\":1209:1210   */\n      dup3\n        /* \"#utility.yul\":1206:1216   */\n      gt\n        /* \"#utility.yul\":1203:1239   */\n      iszero\n      tag_45\n      jumpi\n        /* \"#utility.yul\":1219:1237   */\n      tag_46\n      tag_29\n      jump\t// in\n    tag_46:\n        /* \"#utility.yul\":1203:1239   */\n    tag_45:\n        /* \"#utility.yul\":1055:1246   */\n      swap3\n      swap2\n      pop\n      pop\n      jump\t// out\n\n    auxdata: 0xa26469706673582212201b3158d208666d2770e64edb59283437e95332c49a6877123e5e63582d1bd24064736f6c63430008160033\n}\n",
				"bytecode": {
					"linkReferences": {},
					"object": "60806040525f805f6101000a81548160ff021916908315150217905550600a60015534801561002c575f80fd5b506102018061003a5f395ff3fe608060405234801561000f575f80fd5b506004361061003f575f3560e01c8063504d27fd14610043578063cd0a314b14610061578063e3ec84221461007f575b5f80fd5b61004b61009d565b604051610058919061011f565b60405180910390f35b6100696100d8565b604051610076919061011f565b60405180910390f35b6100876100de565b6040516100949190610152565b60405180910390f35b5f805f9054906101000a900460ff166100cf57600a6001546100bf9190610198565b60018190555060015490506100d5565b60015490505b90565b60015481565b5f600115155f8054906101000a900460ff161515036101005760019050610104565b5f90505b90565b5f819050919050565b61011981610107565b82525050565b5f6020820190506101325f830184610110565b92915050565b5f8115159050919050565b61014c81610138565b82525050565b5f6020820190506101655f830184610143565b92915050565b7f4e487b71000000000000000000000000000000000000000000000000000000005f52601160045260245ffd5b5f6101a282610107565b91506101ad83610107565b92508282019050808211156101c5576101c461016b565b5b9291505056fea26469706673582212201b3158d208666d2770e64edb59283437e95332c49a6877123e5e63582d1bd24064736f6c63430008160033",
					"opcodes": "PUSH1 0x80 PUSH1 0x40 MSTORE PUSH0 DUP1 PUSH0 PUSH2 0x100 EXP DUP2 SLOAD DUP2 PUSH1 0xFF MUL NOT AND SWAP1 DUP4 ISZERO ISZERO MUL OR SWAP1 SSTORE POP PUSH1 0xA PUSH1 0x1 SSTORE CALLVALUE DUP1 ISZERO PUSH2 0x2C JUMPI PUSH0 DUP1 REVERT JUMPDEST POP PUSH2 0x201 DUP1 PUSH2 0x3A PUSH0 CODECOPY PUSH0 RETURN INVALID PUSH1 0x80 PUSH1 0x40 MSTORE CALLVALUE DUP1 ISZERO PUSH2 0xF JUMPI PUSH0 DUP1 REVERT JUMPDEST POP PUSH1 0x4 CALLDATASIZE LT PUSH2 0x3F JUMPI PUSH0 CALLDATALOAD PUSH1 0xE0 SHR DUP1 PUSH4 0x504D27FD EQ PUSH2 0x43 JUMPI DUP1 PUSH4 0xCD0A314B EQ PUSH2 0x61 JUMPI DUP1 PUSH4 0xE3EC8422 EQ PUSH2 0x7F JUMPI JUMPDEST PUSH0 DUP1 REVERT JUMPDEST PUSH2 0x4B PUSH2 0x9D JUMP JUMPDEST PUSH1 0x40 MLOAD PUSH2 0x58 SWAP2 SWAP1 PUSH2 0x11F JUMP JUMPDEST PUSH1 0x40 MLOAD DUP1 SWAP2 SUB SWAP1 RETURN JUMPDEST PUSH2 0x69 PUSH2 0xD8 JUMP JUMPDEST PUSH1 0x40 MLOAD PUSH2 0x76 SWAP2 SWAP1 PUSH2 0x11F JUMP JUMPDEST PUSH1 0x40 MLOAD DUP1 SWAP2 SUB SWAP1 RETURN JUMPDEST PUSH2 0x87 PUSH2 0xDE JUMP JUMPDEST PUSH1 0x40 MLOAD PUSH2 0x94 SWAP2 SWAP1 PUSH2 0x152 JUMP JUMPDEST PUSH1 0x40 MLOAD DUP1 SWAP2 SUB SWAP1 RETURN JUMPDEST PUSH0 DUP1 PUSH0 SWAP1 SLOAD SWAP1 PUSH2 0x100 EXP SWAP1 DIV PUSH1 0xFF AND PUSH2 0xCF JUMPI PUSH1 0xA PUSH1 0x1 SLOAD PUSH2 0xBF SWAP2 SWAP1 PUSH2 0x198 JUMP JUMPDEST PUSH1 0x1 DUP2 SWAP1 SSTORE POP PUSH1 0x1 SLOAD SWAP1 POP PUSH2 0xD5 JUMP JUMPDEST PUSH1 0x1 SLOAD SWAP1 POP JUMPDEST SWAP1 JUMP JUMPDEST PUSH1 0x1 SLOAD DUP2 JUMP JUMPDEST PUSH0 PUSH1 0x1 ISZERO ISZERO PUSH0 DUP1 SLOAD SWAP1 PUSH2 0x100 EXP SWAP1 DIV PUSH1 0xFF AND ISZERO ISZERO SUB PUSH2 0x100 JUMPI PUSH1 0x1 SWAP1 POP PUSH2 0x104 JUMP JUMPDEST PUSH0 SWAP1 POP JUMPDEST SWAP1 JUMP JUMPDEST PUSH0 DUP2 SWAP1 POP SWAP2 SWAP1 POP JUMP JUMPDEST PUSH2 0x119 DUP2 PUSH2 0x107 JUMP JUMPDEST DUP3 MSTORE POP POP JUMP JUMPDEST PUSH0 PUSH1 0x20 DUP3 ADD SWAP1 POP PUSH2 0x132 PUSH0 DUP4 ADD DUP5 PUSH2 0x110 JUMP JUMPDEST SWAP3 SWAP2 POP POP JUMP JUMPDEST PUSH0 DUP2 ISZERO ISZERO SWAP1 POP SWAP2 SWAP1 POP JUMP JUMPDEST PUSH2 0x14C DUP2 PUSH2 0x138 JUMP JUMPDEST DUP3 MSTORE POP POP JUMP JUMPDEST PUSH0 PUSH1 0x20 DUP3 ADD SWAP1 POP PUSH2 0x165 PUSH0 DUP4 ADD DUP5 PUSH2 0x143 JUMP JUMPDEST SWAP3 SWAP2 POP POP JUMP JUMPDEST PUSH32 0x4E487B7100000000000000000000000000000000000000000000000000000000 PUSH0 MSTORE PUSH1 0x11 PUSH1 0x4 MSTORE PUSH1 0x24 PUSH0 REVERT JUMPDEST PUSH0 PUSH2 0x1A2 DUP3 PUSH2 0x107 JUMP JUMPDEST SWAP2 POP PUSH2 0x1AD DUP4 PUSH2 0x107 JUMP JUMPDEST SWAP3 POP DUP3 DUP3 ADD SWAP1 POP DUP1 DUP3 GT ISZERO PUSH2 0x1C5 JUMPI PUSH2 0x1C4 PUSH2 0x16B JUMP JUMPDEST JUMPDEST SWAP3 SWAP2 POP POP JUMP INVALID LOG2 PUSH5 0x6970667358 0x22 SLT KECCAK256 SHL BALANCE PC 0xD2 ADDMOD PUSH7 0x6D2770E64EDB59 0x28 CALLVALUE CALLDATACOPY 0xE9 MSTORE8 ORIGIN 0xC4 SWAP11 PUSH9 0x77123E5E63582D1BD2 BLOCKHASH PUSH5 0x736F6C6343 STOP ADDMOD AND STOP CALLER "
				},
				"gasEstimates": {
					"creation": {
						"codeDepositCost": "102600",
						"executionCost": "46522",
						"totalCost": "149122"
					},
					"external": {
						"transferAmount()": "infinite",
						"validateIsAlive()": "2538",
						"walletBalance()": "2425"
					}
				},
				"methodIdentifiers": {
					"transferAmount()": "504d27fd",
					"validateIsAlive()": "e3ec8422",
					"walletBalance()": "cd0a314b"
				}
			},
			"storageLayout": {
				"storage": [
					{
						"astId": 4,
						"contract": "SmartContract/parentTransfer.sol:willDecision",
						"label": "isAlive",
						"offset": 0,
						"slot": "0",
						"type": "t_bool"
					},
					{
						"astId": 21,
						"contract": "SmartContract/parentTransfer.sol:willDecision",
						"label": "walletBalance",
						"offset": 0,
						"slot": "1",
						"type": "t_uint256"
					}
				],
				"types": {
					"t_bool": {
						"encoding": "inplace",
						"label": "bool",
						"numberOfBytes": "1"
					},
					"t_uint256": {
						"encoding": "inplace",
						"label": "uint256",
						"numberOfBytes": "32"
					}
				}
			},
			"userdoc": {
				"kind": "user",
				"methods": {},
				"version": 1
			}
		}
	}
}